{
  "contractName": "KittyCoreMock",
  "abi": [
    {
      "inputs": [
        {
          "internalType": "uint256",
          "name": "_id",
          "type": "uint256"
        }
      ],
      "name": "getKitty",
      "outputs": [
        {
          "internalType": "bool",
          "name": "",
          "type": "bool"
        },
        {
          "internalType": "bool",
          "name": "",
          "type": "bool"
        },
        {
          "internalType": "uint256",
          "name": "",
          "type": "uint256"
        },
        {
          "internalType": "uint256",
          "name": "",
          "type": "uint256"
        },
        {
          "internalType": "uint256",
          "name": "",
          "type": "uint256"
        },
        {
          "internalType": "uint256",
          "name": "",
          "type": "uint256"
        },
        {
          "internalType": "uint256",
          "name": "",
          "type": "uint256"
        },
        {
          "internalType": "uint256",
          "name": "",
          "type": "uint256"
        },
        {
          "internalType": "uint256",
          "name": "",
          "type": "uint256"
        },
        {
          "internalType": "uint256",
          "name": "genes",
          "type": "uint256"
        }
      ],
      "stateMutability": "pure",
      "type": "function",
      "constant": true
    }
  ],
  "bytecode": "0x608060405234801561001057600080fd5b50610129806100206000396000f3fe6080604052348015600f57600080fd5b506004361060285760003560e01c8063e98b7f4d14602d575b600080fd5b603c603836600460b5565b608c565b604080519a15158b5298151560208b0152978901969096526060880194909452608087019290925260a086015260c085015260e08401526101008301526101208201526101400160405180910390f35b600080808080808080808060a68b661f9e4cba20b88060cd565b90509193959799509193959799565b60006020828403121560c657600080fd5b5035919050565b8082018082111560ed57634e487b7160e01b600052601160045260246000fd5b9291505056fea2646970667358221220ee88b02445b0b601b2dc076ed45cdac8b670abf42d37c277825d89122b5e3c3e64736f6c63430008140033",
  "immutableReferences": {},
  "source": "// SPDX-License-Identifier: MIT\npragma solidity ^0.8.20;\n\ncontract KittyCoreMock {\n  function getKitty(uint256 _id)\n    external pure\n    returns (\n      bool, bool, uint256, uint256, uint256, uint256, uint256, uint256, uint256, uint256 genes\n    )\n  {\n    genes = 8899776655440000 + _id;\n  }\n}\n",
  "sourcePath": "C:\\Users\\Anirudh\\OneDrive\\Desktop\\blockchain CPSC 559 artifacts\\Cryptozombie_MidTerm_Project\\contracts\\KittyCoreMock.sol",
  "compiler": {
    "name": "solc",
    "version": "0.8.20+commit.a1b79de6.Emscripten.clang"
  },
  "schemaVersion": "3.4.16",
  "updatedAt": "2025-10-19T23:51:01.268Z",
  "networkType": "ethereum",
  "devdoc": {
    "kind": "dev",
    "methods": {},
    "version": 1
  },
  "userdoc": {
    "kind": "user",
    "methods": {},
    "version": 1
  }
}