{
  "contractName": "ZombieMarket",
  "abi": [
    {
      "inputs": [
        {
          "internalType": "uint96",
          "name": "_feeBps",
          "type": "uint96"
        },
        {
          "internalType": "address",
          "name": "_feeRecipient",
          "type": "address"
        }
      ],
      "stateMutability": "nonpayable",
      "type": "constructor"
    },
    {
      "anonymous": false,
      "inputs": [
        {
          "indexed": true,
          "internalType": "address",
          "name": "nft",
          "type": "address"
        },
        {
          "indexed": true,
          "internalType": "uint256",
          "name": "tokenId",
          "type": "uint256"
        },
        {
          "indexed": true,
          "internalType": "address",
          "name": "seller",
          "type": "address"
        }
      ],
      "name": "Cancelled",
      "type": "event"
    },
    {
      "anonymous": false,
      "inputs": [
        {
          "indexed": true,
          "internalType": "address",
          "name": "nft",
          "type": "address"
        },
        {
          "indexed": true,
          "internalType": "uint256",
          "name": "tokenId",
          "type": "uint256"
        },
        {
          "indexed": true,
          "internalType": "address",
          "name": "seller",
          "type": "address"
        },
        {
          "indexed": false,
          "internalType": "uint96",
          "name": "price",
          "type": "uint96"
        }
      ],
      "name": "Listed",
      "type": "event"
    },
    {
      "anonymous": false,
      "inputs": [
        {
          "indexed": true,
          "internalType": "address",
          "name": "nft",
          "type": "address"
        },
        {
          "indexed": true,
          "internalType": "uint256",
          "name": "tokenId",
          "type": "uint256"
        },
        {
          "indexed": false,
          "internalType": "uint96",
          "name": "newPrice",
          "type": "uint96"
        }
      ],
      "name": "PriceUpdated",
      "type": "event"
    },
    {
      "anonymous": false,
      "inputs": [
        {
          "indexed": true,
          "internalType": "address",
          "name": "nft",
          "type": "address"
        },
        {
          "indexed": true,
          "internalType": "uint256",
          "name": "tokenId",
          "type": "uint256"
        },
        {
          "indexed": true,
          "internalType": "address",
          "name": "buyer",
          "type": "address"
        },
        {
          "indexed": false,
          "internalType": "uint96",
          "name": "price",
          "type": "uint96"
        }
      ],
      "name": "Purchased",
      "type": "event"
    },
    {
      "anonymous": false,
      "inputs": [
        {
          "indexed": true,
          "internalType": "address",
          "name": "user",
          "type": "address"
        },
        {
          "indexed": false,
          "internalType": "uint256",
          "name": "amount",
          "type": "uint256"
        }
      ],
      "name": "Withdrawn",
      "type": "event"
    },
    {
      "inputs": [],
      "name": "feeBps",
      "outputs": [
        {
          "internalType": "uint96",
          "name": "",
          "type": "uint96"
        }
      ],
      "stateMutability": "view",
      "type": "function",
      "constant": true
    },
    {
      "inputs": [],
      "name": "feeRecipient",
      "outputs": [
        {
          "internalType": "address",
          "name": "",
          "type": "address"
        }
      ],
      "stateMutability": "view",
      "type": "function",
      "constant": true
    },
    {
      "inputs": [
        {
          "internalType": "bytes32",
          "name": "",
          "type": "bytes32"
        }
      ],
      "name": "listings",
      "outputs": [
        {
          "internalType": "address",
          "name": "nft",
          "type": "address"
        },
        {
          "internalType": "uint96",
          "name": "price",
          "type": "uint96"
        },
        {
          "internalType": "address",
          "name": "seller",
          "type": "address"
        }
      ],
      "stateMutability": "view",
      "type": "function",
      "constant": true
    },
    {
      "inputs": [],
      "name": "owner",
      "outputs": [
        {
          "internalType": "address",
          "name": "",
          "type": "address"
        }
      ],
      "stateMutability": "view",
      "type": "function",
      "constant": true
    },
    {
      "inputs": [
        {
          "internalType": "address",
          "name": "",
          "type": "address"
        }
      ],
      "name": "proceeds",
      "outputs": [
        {
          "internalType": "uint256",
          "name": "",
          "type": "uint256"
        }
      ],
      "stateMutability": "view",
      "type": "function",
      "constant": true
    },
    {
      "inputs": [
        {
          "internalType": "uint96",
          "name": "_feeBps",
          "type": "uint96"
        },
        {
          "internalType": "address",
          "name": "_feeRecipient",
          "type": "address"
        }
      ],
      "name": "setFee",
      "outputs": [],
      "stateMutability": "nonpayable",
      "type": "function"
    },
    {
      "inputs": [
        {
          "internalType": "address",
          "name": "nft",
          "type": "address"
        },
        {
          "internalType": "uint256",
          "name": "tokenId",
          "type": "uint256"
        },
        {
          "internalType": "uint96",
          "name": "price",
          "type": "uint96"
        }
      ],
      "name": "list",
      "outputs": [],
      "stateMutability": "nonpayable",
      "type": "function"
    },
    {
      "inputs": [
        {
          "internalType": "address",
          "name": "nft",
          "type": "address"
        },
        {
          "internalType": "uint256",
          "name": "tokenId",
          "type": "uint256"
        },
        {
          "internalType": "uint96",
          "name": "newPrice",
          "type": "uint96"
        }
      ],
      "name": "updatePrice",
      "outputs": [],
      "stateMutability": "nonpayable",
      "type": "function"
    },
    {
      "inputs": [
        {
          "internalType": "address",
          "name": "nft",
          "type": "address"
        },
        {
          "internalType": "uint256",
          "name": "tokenId",
          "type": "uint256"
        }
      ],
      "name": "cancel",
      "outputs": [],
      "stateMutability": "nonpayable",
      "type": "function"
    },
    {
      "inputs": [
        {
          "internalType": "address",
          "name": "nft",
          "type": "address"
        },
        {
          "internalType": "uint256",
          "name": "tokenId",
          "type": "uint256"
        }
      ],
      "name": "buy",
      "outputs": [],
      "stateMutability": "payable",
      "type": "function",
      "payable": true
    },
    {
      "inputs": [],
      "name": "withdraw",
      "outputs": [],
      "stateMutability": "nonpayable",
      "type": "function"
    }
  ],
  "bytecode": "0x6080604052600160005534801561001557600080fd5b50604051610fbc380380610fbc83398101604081905261003491610072565b6001600160601b03909116600160a01b023317600355600480546001600160a01b03929092166001600160a01b0319929092169190911790556100c4565b6000806040838503121561008557600080fd5b82516001600160601b038116811461009c57600080fd5b60208401519092506001600160a01b03811681146100b957600080fd5b809150509250929050565b610ee9806100d36000396000f3fe60806040526004361061009c5760003560e01c80635e60f358116100645780635e60f3581461018f5780638da5cb5b146101af57806398590ef9146101cf578063a00eaa0c146101ef578063c18b8db41461020f578063cce7ec131461029357600080fd5b806324a9d853146100a157806330460afd146100e557806335adde54146101075780633ccfd60b146101425780634690484014610157575b600080fd5b3480156100ad57600080fd5b506003546100c890600160a01b90046001600160601b031681565b6040516001600160601b0390911681526020015b60405180910390f35b3480156100f157600080fd5b50610105610100366004610cfd565b6102a6565b005b34801561011357600080fd5b50610134610122366004610d34565b60026020526000908152604090205481565b6040519081526020016100dc565b34801561014e57600080fd5b50610105610378565b34801561016357600080fd5b50600454610177906001600160a01b031681565b6040516001600160a01b0390911681526020016100dc565b34801561019b57600080fd5b506101056101aa366004610d58565b6104bb565b3480156101bb57600080fd5b50600354610177906001600160a01b031681565b3480156101db57600080fd5b506101056101ea366004610d96565b6107c3565b3480156101fb57600080fd5b5061010561020a366004610d58565b6108b6565b34801561021b57600080fd5b5061026161022a366004610dc2565b600160208190526000918252604090912080549101546001600160a01b0380831692600160a01b90046001600160601b0316911683565b604080516001600160a01b0394851681526001600160601b0390931660208401529216918101919091526060016100dc565b6101056102a1366004610d96565b6109c5565b6003546001600160a01b031633146102f15760405162461bcd60e51b81526020600482015260096024820152682727aa2fa7aba722a960b91b60448201526064015b60405180910390fd5b6103e8826001600160601b0316111561033b5760405162461bcd60e51b815260206004820152600c60248201526b08c8a8abea89e9ebe90928e960a31b60448201526064016102e8565b600380546001600160601b03909316600160a01b026001600160a01b0393841617905560048054919092166001600160a01b031991909116179055565b60026000540361039a5760405162461bcd60e51b81526004016102e890610ddb565b600260008181553381526020919091526040902054806103e65760405162461bcd60e51b81526020600482015260076024820152664e4f5448494e4760c81b60448201526064016102e8565b336000818152600260205260408082208290555190919083908381818185875af1925050503d8060008114610437576040519150601f19603f3d011682016040523d82523d6000602084013e61043c565b606091505b505090508061047d5760405162461bcd60e51b815260206004820152600d60248201526c15d2551211149055d7d1905253609a1b60448201526064016102e8565b60405182815233907f7084f5476618d8e60b11ef0d7d3f06914655adb8793e28ff7f018d4c76d505d59060200160405180910390a250506001600055565b6002600054036104dd5760405162461bcd60e51b81526004016102e890610ddb565b60026000556001600160601b0381166105255760405162461bcd60e51b815260206004820152600a60248201526950524943455f5a45524f60b01b60448201526064016102e8565b6040516331a9108f60e11b815260048101839052839033906001600160a01b03831690636352211e90602401602060405180830381865afa15801561056e573d6000803e3d6000fd5b505050506040513d601f19601f820116820180604052508101906105929190610dff565b6001600160a01b0316146105d45760405162461bcd60e51b81526020600482015260096024820152682727aa2fa7aba722a960b91b60448201526064016102e8565b60405163020604bf60e21b81526004810184905230906001600160a01b0383169063081812fc90602401602060405180830381865afa15801561061b573d6000803e3d6000fd5b505050506040513d601f19601f8201168201806040525081019061063f9190610dff565b6001600160a01b031614806106bd575060405163e985e9c560e01b81523360048201523060248201526001600160a01b0382169063e985e9c590604401602060405180830381865afa158015610699573d6000803e3d6000fd5b505050506040513d601f19601f820116820180604052508101906106bd9190610e1c565b6106ff5760405162461bcd60e51b815260206004820152601360248201527213505492d15517d393d517d054141493d59151606a1b60448201526064016102e8565b600061070b8585610c81565b604080516060810182526001600160a01b038881168083526001600160601b0388811660208086018281523387890181815260008b81526001808652908b902099519351909616600160a01b029288169290921788559051969093018054969095166001600160a01b0319909616959095179093558451928352935194955092938893927f969f5a45d8e5a164a98d4774eb2673b5b6a1ec5f0f85f3fde7a370b4534d9bf2928290030190a450506001600055505050565b60006107cf8383610c81565b600081815260016020818152604092839020835160608101855281546001600160a01b038082168352600160a01b9091046001600160601b0316938201939093529201541691810182905291925033146108585760405162461bcd60e51b815260206004820152600a6024820152692727aa2fa9a2a62622a960b11b60448201526064016102e8565b600082815260016020819052604080832083815590910180546001600160a01b031916905551339185916001600160a01b038816917f0c8fde439b4e72d175ffeb3c5f3c15c6f70f473413f4c2d68f8971c0d629b60d91a450505050565b60006108c28484610c81565b600081815260016020819052604090912090810154919250906001600160a01b0316331461091f5760405162461bcd60e51b815260206004820152600a6024820152692727aa2fa9a2a62622a960b11b60448201526064016102e8565b6000836001600160601b0316116109655760405162461bcd60e51b815260206004820152600a60248201526950524943455f5a45524f60b01b60448201526064016102e8565b80546001600160601b038416600160a01b81026001600160a01b0392831617835560405190815285918716907fbfd65c50ce2500eb58ef4f07affe00d5d623ef1c6b9a55ce42307244201fdb209060200160405180910390a35050505050565b6002600054036109e75760405162461bcd60e51b81526004016102e890610ddb565b600260009081556109f88383610c81565b600081815260016020818152604092839020835160608101855281546001600160a01b038082168352600160a01b9091046001600160601b031693820184905291909301541692820192909252919250610a815760405162461bcd60e51b815260206004820152600a6024820152691393d517d31254d5115160b21b60448201526064016102e8565b80602001516001600160601b03163414610ac95760405162461bcd60e51b81526020600482015260096024820152684241445f505249434560b81b60448201526064016102e8565b600354602082015160009161271091610af5916001600160601b03600160a01b90910481169116610e54565b610aff9190610e6b565b905060008183602001516001600160601b0316610b1c9190610e8d565b9050806002600085604001516001600160a01b03166001600160a01b031681526020019081526020016000206000828254610b579190610ea0565b90915550508115610b92576004546001600160a01b031660009081526002602052604081208054849290610b8c908490610ea0565b90915550505b82516040808501519051632142170760e11b81526001600160a01b039182166004820152336024820152604481018890529116906342842e0e90606401600060405180830381600087803b158015610be957600080fd5b505af1158015610bfd573d6000803e3d6000fd5b50505060008581526001602081815260408084209384559290910180546001600160a01b03191690558581015191516001600160601b03909216825233925087916001600160a01b038a16917f56fb05bd4d7370ae8f34d52763aa72f6dbacf964786e42327205e22294af08ba910160405180910390a45050600160005550505050565b6040516bffffffffffffffffffffffff19606084901b166020820152603481018290526000906054016040516020818303038152906040528051906020012090505b92915050565b80356001600160601b0381168114610ce057600080fd5b919050565b6001600160a01b0381168114610cfa57600080fd5b50565b60008060408385031215610d1057600080fd5b610d1983610cc9565b91506020830135610d2981610ce5565b809150509250929050565b600060208284031215610d4657600080fd5b8135610d5181610ce5565b9392505050565b600080600060608486031215610d6d57600080fd5b8335610d7881610ce5565b925060208401359150610d8d60408501610cc9565b90509250925092565b60008060408385031215610da957600080fd5b8235610db481610ce5565b946020939093013593505050565b600060208284031215610dd457600080fd5b5035919050565b6020808252600a90820152695245454e5452414e435960b01b604082015260600190565b600060208284031215610e1157600080fd5b8151610d5181610ce5565b600060208284031215610e2e57600080fd5b81518015158114610d5157600080fd5b634e487b7160e01b600052601160045260246000fd5b8082028115828204841417610cc357610cc3610e3e565b600082610e8857634e487b7160e01b600052601260045260246000fd5b500490565b81810381811115610cc357610cc3610e3e565b80820180821115610cc357610cc3610e3e56fea26469706673582212200d4ad92a7a76b9daa8582a79625eeb68d4d81b4f4db81ca8fc8acaf2883564d364736f6c63430008140033",
  "immutableReferences": {},
  "source": "// SPDX-License-Identifier: MIT\r\npragma solidity ^0.8.20;\r\n\r\ninterface IERC721 {\r\n  function ownerOf(uint256 tokenId) external view returns (address);\r\n  function safeTransferFrom(address from, address to, uint256 tokenId) external;\r\n  function isApprovedForAll(address owner, address operator) external view returns (bool);\r\n  function getApproved(uint256 tokenId) external view returns (address);\r\n  function setApprovalForAll(address operator, bool approved) external;\r\n}\r\n\r\nabstract contract ReentrancyGuard {\r\n  uint256 private constant _NOT_ENTERED = 1;\r\n  uint256 private constant _ENTERED = 2;\r\n  uint256 private _status = _NOT_ENTERED;\r\n  modifier nonReentrant() {\r\n    require(_status != _ENTERED, \"REENTRANCY\");\r\n    _status = _ENTERED; _;\r\n    _status = _NOT_ENTERED;\r\n  }\r\n}\r\n\r\ncontract ZombieMarket is ReentrancyGuard {\r\n  struct Listing {\r\n    address nft;          // ERC721 contract\r\n    uint96  price;        // in wei\r\n    address seller;       // lister\r\n  }\r\n\r\n  mapping(bytes32 => Listing) public listings;\r\n  mapping(address => uint256) public proceeds; // seller  ETH they can withdraw\r\n\r\n  address public owner;\r\n  uint96  public feeBps;      // e.g., 250 = 2.5%\r\n  address public feeRecipient;\r\n\r\n  event Listed(address indexed nft, uint256 indexed tokenId, address indexed seller, uint96 price);\r\n  event PriceUpdated(address indexed nft, uint256 indexed tokenId, uint96 newPrice);\r\n  event Cancelled(address indexed nft, uint256 indexed tokenId, address indexed seller);\r\n  event Purchased(address indexed nft, uint256 indexed tokenId, address indexed buyer, uint96 price);\r\n  event Withdrawn(address indexed user, uint256 amount);\r\n\r\n  modifier onlyOwner() { require(msg.sender == owner, \"NOT_OWNER\"); _; }\r\n\r\n  constructor(uint96 _feeBps, address _feeRecipient) {\r\n    owner = msg.sender;\r\n    feeBps = _feeBps;                 // set 250 for 2.5%\r\n    feeRecipient = _feeRecipient;     // can be owner initially\r\n  }\r\n\r\n  function setFee(uint96 _feeBps, address _feeRecipient) external onlyOwner {\r\n    require(_feeBps <= 1000, \"FEE_TOO_HIGH\"); // max 10%\r\n    feeBps = _feeBps;\r\n    feeRecipient = _feeRecipient;\r\n  }\r\n\r\n  function _key(address nft, uint256 tokenId) internal pure returns (bytes32) {\r\n    return keccak256(abi.encodePacked(nft, tokenId));\r\n  }\r\n\r\n  function list(address nft, uint256 tokenId, uint96 price) external nonReentrant {\r\n    require(price > 0, \"PRICE_ZERO\");\r\n    IERC721 c = IERC721(nft);\r\n    require(c.ownerOf(tokenId) == msg.sender, \"NOT_OWNER\");\r\n    require(\r\n      c.getApproved(tokenId) == address(this) || c.isApprovedForAll(msg.sender, address(this)),\r\n      \"MARKET_NOT_APPROVED\"\r\n    );\r\n\r\n    bytes32 k = _key(nft, tokenId);\r\n    listings[k] = Listing({ nft: nft, price: price, seller: msg.sender });\r\n    emit Listed(nft, tokenId, msg.sender, price);\r\n  }\r\n\r\n  function updatePrice(address nft, uint256 tokenId, uint96 newPrice) external {\r\n    bytes32 k = _key(nft, tokenId);\r\n    Listing storage L = listings[k];\r\n    require(L.seller == msg.sender, \"NOT_SELLER\");\r\n    require(newPrice > 0, \"PRICE_ZERO\");\r\n    L.price = newPrice;\r\n    emit PriceUpdated(nft, tokenId, newPrice);\r\n  }\r\n\r\n  function cancel(address nft, uint256 tokenId) external {\r\n    bytes32 k = _key(nft, tokenId);\r\n    Listing memory L = listings[k];\r\n    require(L.seller == msg.sender, \"NOT_SELLER\");\r\n    delete listings[k];\r\n    emit Cancelled(nft, tokenId, msg.sender);\r\n  }\r\n\r\n  function buy(address nft, uint256 tokenId) external payable nonReentrant {\r\n    bytes32 k = _key(nft, tokenId);\r\n    Listing memory L = listings[k];\r\n    require(L.price > 0, \"NOT_LISTED\");\r\n    require(msg.value == L.price, \"BAD_PRICE\");\r\n\r\n    // fee + seller proceeds\r\n    uint256 fee = (uint256(L.price) * feeBps) / 10_000;\r\n    uint256 sellerAmt = uint256(L.price) - fee;\r\n    proceeds[L.seller] += sellerAmt;\r\n    if (fee > 0) proceeds[feeRecipient] += fee;\r\n\r\n    // transfer NFT\r\n    IERC721(L.nft).safeTransferFrom(L.seller, msg.sender, tokenId);\r\n\r\n    delete listings[k];\r\n    emit Purchased(nft, tokenId, msg.sender, L.price);\r\n  }\r\n\r\n  function withdraw() external nonReentrant {\r\n    uint256 amount = proceeds[msg.sender];\r\n    require(amount > 0, \"NOTHING\");\r\n    proceeds[msg.sender] = 0;\r\n    (bool ok, ) = payable(msg.sender).call{value: amount}(\"\");\r\n    require(ok, \"WITHDRAW_FAIL\");\r\n    emit Withdrawn(msg.sender, amount);\r\n  }\r\n}",
  "sourcePath": "C:\\Users\\Anirudh\\OneDrive\\Desktop\\blockchain CPSC 559 artifacts\\Cryptozombie_MidTerm_Project\\contracts\\ZombieMarket.sol",
  "compiler": {
    "name": "solc",
    "version": "0.8.20+commit.a1b79de6.Emscripten.clang"
  },
  "schemaVersion": "3.4.16",
  "updatedAt": "2025-10-19T23:51:02.033Z",
  "networkType": "ethereum",
  "devdoc": {
    "kind": "dev",
    "methods": {},
    "version": 1
  },
  "userdoc": {
    "kind": "user",
    "methods": {},
    "version": 1
  }
}