{
  "contractName": "ZombieHelper",
  "abi": [
    {
      "anonymous": false,
      "inputs": [
        {
          "indexed": false,
          "internalType": "uint256",
          "name": "zombieId",
          "type": "uint256"
        },
        {
          "indexed": false,
          "internalType": "string",
          "name": "name",
          "type": "string"
        },
        {
          "indexed": false,
          "internalType": "uint256",
          "name": "dna",
          "type": "uint256"
        }
      ],
      "name": "NewZombie",
      "type": "event"
    },
    {
      "inputs": [
        {
          "internalType": "string",
          "name": "_name",
          "type": "string"
        }
      ],
      "name": "createRandomZombie",
      "outputs": [],
      "stateMutability": "nonpayable",
      "type": "function"
    },
    {
      "inputs": [
        {
          "internalType": "uint256",
          "name": "_zombieId",
          "type": "uint256"
        },
        {
          "internalType": "uint256",
          "name": "_kittyId",
          "type": "uint256"
        }
      ],
      "name": "feedOnKitty",
      "outputs": [],
      "stateMutability": "nonpayable",
      "type": "function"
    },
    {
      "inputs": [],
      "name": "kittyContract",
      "outputs": [
        {
          "internalType": "contract KittyInterface",
          "name": "",
          "type": "address"
        }
      ],
      "stateMutability": "view",
      "type": "function"
    },
    {
      "inputs": [
        {
          "internalType": "address",
          "name": "",
          "type": "address"
        }
      ],
      "name": "ownerZombieCount",
      "outputs": [
        {
          "internalType": "uint256",
          "name": "",
          "type": "uint256"
        }
      ],
      "stateMutability": "view",
      "type": "function"
    },
    {
      "inputs": [
        {
          "internalType": "address",
          "name": "_address",
          "type": "address"
        }
      ],
      "name": "setKittyContractAddress",
      "outputs": [],
      "stateMutability": "nonpayable",
      "type": "function"
    },
    {
      "inputs": [
        {
          "internalType": "uint256",
          "name": "",
          "type": "uint256"
        }
      ],
      "name": "zombieToOwner",
      "outputs": [
        {
          "internalType": "address",
          "name": "",
          "type": "address"
        }
      ],
      "stateMutability": "view",
      "type": "function"
    },
    {
      "inputs": [
        {
          "internalType": "uint256",
          "name": "",
          "type": "uint256"
        }
      ],
      "name": "zombies",
      "outputs": [
        {
          "internalType": "string",
          "name": "name",
          "type": "string"
        },
        {
          "internalType": "uint256",
          "name": "dna",
          "type": "uint256"
        },
        {
          "internalType": "uint32",
          "name": "level",
          "type": "uint32"
        },
        {
          "internalType": "uint32",
          "name": "winCount",
          "type": "uint32"
        },
        {
          "internalType": "uint32",
          "name": "lossCount",
          "type": "uint32"
        },
        {
          "internalType": "uint32",
          "name": "readyTime",
          "type": "uint32"
        }
      ],
      "stateMutability": "view",
      "type": "function"
    },
    {
      "inputs": [
        {
          "internalType": "uint256",
          "name": "_zombieId",
          "type": "uint256"
        },
        {
          "internalType": "string",
          "name": "_newName",
          "type": "string"
        }
      ],
      "name": "changeName",
      "outputs": [],
      "stateMutability": "nonpayable",
      "type": "function"
    },
    {
      "inputs": [
        {
          "internalType": "uint256",
          "name": "_zombieId",
          "type": "uint256"
        }
      ],
      "name": "levelUp",
      "outputs": [],
      "stateMutability": "payable",
      "type": "function"
    },
    {
      "inputs": [
        {
          "internalType": "address",
          "name": "_owner",
          "type": "address"
        }
      ],
      "name": "getZombiesByOwner",
      "outputs": [
        {
          "internalType": "uint256[]",
          "name": "",
          "type": "uint256[]"
        }
      ],
      "stateMutability": "view",
      "type": "function"
    }
  ],
  "bytecode": "0x6080604052601060008190556200001890600a62000149565b600155603c6002553480156200002d57600080fd5b506200015e565b634e487b7160e01b600052601160045260246000fd5b600181815b808511156200008b5781600019048211156200006f576200006f62000034565b808516156200007d57918102915b93841c93908002906200004f565b509250929050565b600082620000a45750600162000143565b81620000b35750600062000143565b8160018114620000cc5760028114620000d757620000f7565b600191505062000143565b60ff841115620000eb57620000eb62000034565b50506001821b62000143565b5060208310610133831016604e8410600b84101617156200011c575081810a62000143565b6200012883836200004a565b80600019048211156200013f576200013f62000034565b0290505b92915050565b600062000157838362000093565b9392505050565b611070806200016e6000396000f3fe6080604052600436106100915760003560e01c8063528b7b8f11610059578063528b7b8f1461016a5780635f4623f1146101b85780635f9da25c146101f55780637bff0a0114610215578063c39cbef11461023557600080fd5b806301afd7e1146100965780630ce90ec2146100d657806317a7f4cc146100eb5780632052465e1461010b5780634412e1041461013d575b600080fd5b3480156100a257600080fd5b506100c36100b1366004610a9f565b60056020526000908152604090205481565b6040519081526020015b60405180910390f35b6100e96100e4366004610ac8565b610255565b005b3480156100f757600080fd5b506100e9610106366004610ae1565b6102f0565b34801561011757600080fd5b5061012b610126366004610ac8565b6103ef565b6040516100cd96959493929190610b53565b34801561014957600080fd5b5061015d610158366004610a9f565b6104d7565b6040516100cd9190610b9a565b34801561017657600080fd5b506101a0610185366004610ac8565b6004602052600090815260409020546001600160a01b031681565b6040516001600160a01b0390911681526020016100cd565b3480156101c457600080fd5b506100e96101d3366004610a9f565b600680546001600160a01b0319166001600160a01b0392909216919091179055565b34801561020157600080fd5b506006546101a0906001600160a01b031681565b34801561022157600080fd5b506100e9610230366004610c81565b6105e6565b34801561024157600080fd5b506100e9610250366004610cbe565b610623565b34156102975760405162461bcd60e51b815260206004820152600c60248201526b4672656520696e2064656d6f60a01b60448201526064015b60405180910390fd5b600381815481106102aa576102aa610d05565b600091825260208220600260039092020101805463ffffffff16916102ce83610d31565b91906101000a81548163ffffffff021916908363ffffffff1602179055505050565b6000828152600460205260409020546001600160a01b031633146103485760405162461bcd60e51b815260206004820152600f60248201526e4e6f7420796f7572207a6f6d62696560881b604482015260640161028e565b60065460405163e98b7f4d60e01b8152600481018390526000916001600160a01b03169063e98b7f4d9060240161014060405180830381865afa158015610393573d6000803e3d6000fd5b505050506040513d601f19601f820116820180604052508101906103b79190610d69565b99505050505050505050506103ea8382604051806040016040528060058152602001646b6974747960d81b815250610726565b505050565b600381815481106103ff57600080fd5b906000526020600020906003020160009150905080600001805461042290610deb565b80601f016020809104026020016040519081016040528092919081815260200182805461044e90610deb565b801561049b5780601f106104705761010080835404028352916020019161049b565b820191906000526020600020905b81548152906001019060200180831161047e57829003601f168201915b505050600184015460029094015492939263ffffffff8082169350640100000000820481169250600160401b8204811691600160601b90041686565b60606000805b600354811015610528576000818152600460205260409020546001600160a01b03808616911603610516578161051281610e25565b9250505b8061052081610e25565b9150506104dd565b5060008167ffffffffffffffff81111561054457610544610bde565b60405190808252806020026020018201604052801561056d578160200160208202803683370190505b5090506000805b6003548110156105dc576000818152600460205260409020546001600160a01b038088169116036105ca578083836105ab81610e25565b9450815181106105bd576105bd610d05565b6020026020010181815250505b806105d481610e25565b915050610574565b5090949350505050565b60006105f182610886565b90506105fe606482610e54565b6106089082610e68565b61061390600a610e81565b905061061f82826108ce565b5050565b600282816003828154811061063a5761063a610d05565b600091825260209091206002600390920201015463ffffffff1610156106965760405162461bcd60e51b815260206004820152601160248201527013995959081a1a59da195c881b195d995b607a1b604482015260640161028e565b6000848152600460205260409020546001600160a01b031633146106ee5760405162461bcd60e51b815260206004820152600f60248201526e4e6f7420796f7572207a6f6d62696560881b604482015260640161028e565b826003858154811061070257610702610d05565b9060005260206000209060030201600001908161071f9190610ee2565b5050505050565b60006003848154811061073b5761073b610d05565b9060005260206000209060030201905061076a81600201544263ffffffff600160601b90920491909116111590565b6107ac5760405162461bcd60e51b81526020600482015260136024820152722d37b6b134b29031b7b7b634b733903237bbb760691b604482015260640161028e565b6001546107b99084610e54565b9250600060028483600101546107cf9190610e81565b6107d99190610fa2565b604051646b6974747960d81b602082015290915060250160405160208183030381529060405280519060200120836040516020016108179190610fb6565b60405160208183030381529060405280519060200120036108555761083d606482610e54565b6108479082610e68565b610852906063610e81565b90505b61087d604051806040016040528060068152602001654e6f4e616d6560d01b815250826108ce565b61071f82610a6f565b60008082334260405160200161089e93929190610fd2565b6040516020818303038152906040528051906020012060001c9050600154816108c79190610e54565b9392505050565b60036040518060c00160405280848152602001838152602001600163ffffffff168152602001600063ffffffff168152602001600063ffffffff1681526020016002544261091c9190610e81565b63ffffffff169052815460018101835560009283526020909220815191926003020190819061094b9082610ee2565b5060208201516001808301919091556040830151600290920180546060850151608086015160a09096015163ffffffff908116600160601b0263ffffffff60601b19978216600160401b02979097166fffffffffffffffff0000000000000000199282166401000000000267ffffffffffffffff1990941691909616179190911716929092179290921790556003546000916109e691610e68565b600081815260046020908152604080832080546001600160a01b031916339081179091558352600590915281208054929350600192909190610a29908490610e81565b90915550506040517f88f026aacbbecc90c18411df4b1185fd8d9be2470f1962f192bf84a27d0704b790610a6290839086908690611011565b60405180910390a1505050565b610a7a42601e610e81565b81600201600c6101000a81548163ffffffff021916908363ffffffff16021790555050565b600060208284031215610ab157600080fd5b81356001600160a01b03811681146108c757600080fd5b600060208284031215610ada57600080fd5b5035919050565b60008060408385031215610af457600080fd5b50508035926020909101359150565b60005b83811015610b1e578181015183820152602001610b06565b50506000910152565b60008151808452610b3f816020860160208601610b03565b601f01601f19169290920160200192915050565b60c081526000610b6660c0830189610b27565b60208301979097525063ffffffff94851660408201529284166060840152908316608083015290911660a090910152919050565b6020808252825182820181905260009190848201906040850190845b81811015610bd257835183529284019291840191600101610bb6565b50909695505050505050565b634e487b7160e01b600052604160045260246000fd5b600082601f830112610c0557600080fd5b813567ffffffffffffffff80821115610c2057610c20610bde565b604051601f8301601f19908116603f01168101908282118183101715610c4857610c48610bde565b81604052838152866020858801011115610c6157600080fd5b836020870160208301376000602085830101528094505050505092915050565b600060208284031215610c9357600080fd5b813567ffffffffffffffff811115610caa57600080fd5b610cb684828501610bf4565b949350505050565b60008060408385031215610cd157600080fd5b82359150602083013567ffffffffffffffff811115610cef57600080fd5b610cfb85828601610bf4565b9150509250929050565b634e487b7160e01b600052603260045260246000fd5b634e487b7160e01b600052601160045260246000fd5b600063ffffffff808316818103610d4a57610d4a610d1b565b6001019392505050565b80518015158114610d6457600080fd5b919050565b6000806000806000806000806000806101408b8d031215610d8957600080fd5b610d928b610d54565b9950610da060208c01610d54565b985060408b0151975060608b0151965060808b0151955060a08b0151945060c08b0151935060e08b015192506101008b015191506101208b015190509295989b9194979a5092959850565b600181811c90821680610dff57607f821691505b602082108103610e1f57634e487b7160e01b600052602260045260246000fd5b50919050565b600060018201610e3757610e37610d1b565b5060010190565b634e487b7160e01b600052601260045260246000fd5b600082610e6357610e63610e3e565b500690565b81810381811115610e7b57610e7b610d1b565b92915050565b80820180821115610e7b57610e7b610d1b565b601f8211156103ea57600081815260208120601f850160051c81016020861015610ebb5750805b601f850160051c820191505b81811015610eda57828155600101610ec7565b505050505050565b815167ffffffffffffffff811115610efc57610efc610bde565b610f1081610f0a8454610deb565b84610e94565b602080601f831160018114610f455760008415610f2d5750858301515b600019600386901b1c1916600185901b178555610eda565b600085815260208120601f198616915b82811015610f7457888601518255948401946001909101908401610f55565b5085821015610f925787850151600019600388901b60f8161c191681555b5050505050600190811b01905550565b600082610fb157610fb1610e3e565b500490565b60008251610fc8818460208701610b03565b9190910192915050565b60008451610fe4818460208901610b03565b60609490941b6bffffffffffffffffffffffff191691909301908152601481019190915260340192915050565b83815260606020820152600061102a6060830185610b27565b905082604083015294935050505056fea26469706673582212202ee4f41339f8b214b46f79d8f9aab5edd9c8a6660c14e0b7e022dd33cebf8d6b64736f6c63430008140033",
  "immutableReferences": {},
  "source": "// SPDX-License-Identifier: MIT\npragma solidity ^0.8.20;\n\nimport \"./ZombieFeeding.sol\";\n\ncontract ZombieHelper is ZombieFeeding {\n    modifier aboveLevel(uint _level, uint _zombieId) {\n        require(zombies[_zombieId].level >= _level, \"Need higher level\");\n        _;\n    }\n    function changeName(uint _zombieId, string memory _newName) external aboveLevel(2, _zombieId) {\n        require(msg.sender == zombieToOwner[_zombieId], \"Not your zombie\");\n        zombies[_zombieId].name = _newName;\n    }\n    function levelUp(uint _zombieId) external payable {\n        require(msg.value == 0, \"Free in demo\");\n        zombies[_zombieId].level++;\n    }\n\n    function getZombiesByOwner(address _owner) external view returns (uint[] memory) {\n        uint c = 0;\n        for (uint i = 0; i < zombies.length; i++) if (zombieToOwner[i] == _owner) c++;\n        uint[] memory result = new uint[](c);\n        uint idx = 0;\n        for (uint i = 0; i < zombies.length; i++) if (zombieToOwner[i] == _owner) { result[idx++] = i; }\n        return result;\n    }\n}\n",
  "sourcePath": "C:\\Users\\Anirudh\\OneDrive\\Desktop\\blockchain CPSC 559 artifacts\\Cryptozombie_MidTerm_Project\\contracts\\ZombieHelper.sol",
  "compiler": {
    "name": "solc",
    "version": "0.8.20+commit.a1b79de6.Emscripten.clang"
  },
  "schemaVersion": "3.4.16",
  "updatedAt": "2025-10-19T23:50:58.249Z",
  "devdoc": {
    "kind": "dev",
    "methods": {},
    "version": 1
  },
  "userdoc": {
    "kind": "user",
    "methods": {},
    "version": 1
  }
}