{
  "contractName": "ZombieOwnership",
  "abi": [
    {
      "anonymous": false,
      "inputs": [
        {
          "indexed": false,
          "internalType": "uint256",
          "name": "zombieId",
          "type": "uint256"
        },
        {
          "indexed": false,
          "internalType": "string",
          "name": "name",
          "type": "string"
        },
        {
          "indexed": false,
          "internalType": "uint256",
          "name": "dna",
          "type": "uint256"
        }
      ],
      "name": "NewZombie",
      "type": "event"
    },
    {
      "anonymous": false,
      "inputs": [
        {
          "indexed": true,
          "internalType": "address",
          "name": "from",
          "type": "address"
        },
        {
          "indexed": true,
          "internalType": "address",
          "name": "to",
          "type": "address"
        },
        {
          "indexed": true,
          "internalType": "uint256",
          "name": "tokenId",
          "type": "uint256"
        }
      ],
      "name": "Transfer",
      "type": "event"
    },
    {
      "inputs": [
        {
          "internalType": "uint256",
          "name": "_zombieId",
          "type": "uint256"
        },
        {
          "internalType": "string",
          "name": "_newName",
          "type": "string"
        }
      ],
      "name": "changeName",
      "outputs": [],
      "stateMutability": "nonpayable",
      "type": "function"
    },
    {
      "inputs": [
        {
          "internalType": "string",
          "name": "_name",
          "type": "string"
        }
      ],
      "name": "createRandomZombie",
      "outputs": [],
      "stateMutability": "nonpayable",
      "type": "function"
    },
    {
      "inputs": [
        {
          "internalType": "uint256",
          "name": "_zombieId",
          "type": "uint256"
        },
        {
          "internalType": "uint256",
          "name": "_kittyId",
          "type": "uint256"
        }
      ],
      "name": "feedOnKitty",
      "outputs": [],
      "stateMutability": "nonpayable",
      "type": "function"
    },
    {
      "inputs": [
        {
          "internalType": "address",
          "name": "_owner",
          "type": "address"
        }
      ],
      "name": "getZombiesByOwner",
      "outputs": [
        {
          "internalType": "uint256[]",
          "name": "",
          "type": "uint256[]"
        }
      ],
      "stateMutability": "view",
      "type": "function",
      "constant": true
    },
    {
      "inputs": [],
      "name": "kittyContract",
      "outputs": [
        {
          "internalType": "contract KittyInterface",
          "name": "",
          "type": "address"
        }
      ],
      "stateMutability": "view",
      "type": "function",
      "constant": true
    },
    {
      "inputs": [
        {
          "internalType": "uint256",
          "name": "_zombieId",
          "type": "uint256"
        }
      ],
      "name": "levelUp",
      "outputs": [],
      "stateMutability": "payable",
      "type": "function",
      "payable": true
    },
    {
      "inputs": [
        {
          "internalType": "address",
          "name": "",
          "type": "address"
        }
      ],
      "name": "ownerZombieCount",
      "outputs": [
        {
          "internalType": "uint256",
          "name": "",
          "type": "uint256"
        }
      ],
      "stateMutability": "view",
      "type": "function",
      "constant": true
    },
    {
      "inputs": [
        {
          "internalType": "address",
          "name": "_address",
          "type": "address"
        }
      ],
      "name": "setKittyContractAddress",
      "outputs": [],
      "stateMutability": "nonpayable",
      "type": "function"
    },
    {
      "inputs": [
        {
          "internalType": "uint256",
          "name": "",
          "type": "uint256"
        }
      ],
      "name": "zombieApprovals",
      "outputs": [
        {
          "internalType": "address",
          "name": "",
          "type": "address"
        }
      ],
      "stateMutability": "view",
      "type": "function",
      "constant": true
    },
    {
      "inputs": [
        {
          "internalType": "uint256",
          "name": "",
          "type": "uint256"
        }
      ],
      "name": "zombieToOwner",
      "outputs": [
        {
          "internalType": "address",
          "name": "",
          "type": "address"
        }
      ],
      "stateMutability": "view",
      "type": "function",
      "constant": true
    },
    {
      "inputs": [
        {
          "internalType": "uint256",
          "name": "",
          "type": "uint256"
        }
      ],
      "name": "zombies",
      "outputs": [
        {
          "internalType": "string",
          "name": "name",
          "type": "string"
        },
        {
          "internalType": "uint256",
          "name": "dna",
          "type": "uint256"
        },
        {
          "internalType": "uint32",
          "name": "level",
          "type": "uint32"
        },
        {
          "internalType": "uint32",
          "name": "winCount",
          "type": "uint32"
        },
        {
          "internalType": "uint32",
          "name": "lossCount",
          "type": "uint32"
        },
        {
          "internalType": "uint32",
          "name": "readyTime",
          "type": "uint32"
        }
      ],
      "stateMutability": "view",
      "type": "function",
      "constant": true
    },
    {
      "inputs": [
        {
          "internalType": "address",
          "name": "_owner",
          "type": "address"
        }
      ],
      "name": "balanceOf",
      "outputs": [
        {
          "internalType": "uint256",
          "name": "",
          "type": "uint256"
        }
      ],
      "stateMutability": "view",
      "type": "function",
      "constant": true
    },
    {
      "inputs": [
        {
          "internalType": "uint256",
          "name": "_tokenId",
          "type": "uint256"
        }
      ],
      "name": "ownerOf",
      "outputs": [
        {
          "internalType": "address",
          "name": "",
          "type": "address"
        }
      ],
      "stateMutability": "view",
      "type": "function",
      "constant": true
    },
    {
      "inputs": [
        {
          "internalType": "address",
          "name": "_to",
          "type": "address"
        },
        {
          "internalType": "uint256",
          "name": "_tokenId",
          "type": "uint256"
        }
      ],
      "name": "transfer",
      "outputs": [],
      "stateMutability": "nonpayable",
      "type": "function"
    },
    {
      "inputs": [
        {
          "internalType": "address",
          "name": "_to",
          "type": "address"
        },
        {
          "internalType": "uint256",
          "name": "_tokenId",
          "type": "uint256"
        }
      ],
      "name": "approve",
      "outputs": [],
      "stateMutability": "nonpayable",
      "type": "function"
    },
    {
      "inputs": [
        {
          "internalType": "uint256",
          "name": "_tokenId",
          "type": "uint256"
        }
      ],
      "name": "takeOwnership",
      "outputs": [],
      "stateMutability": "nonpayable",
      "type": "function"
    }
  ],
  "bytecode": "0x6080604052601060008190556200001890600a62000149565b600155603c6002553480156200002d57600080fd5b506200015e565b634e487b7160e01b600052601160045260246000fd5b600181815b808511156200008b5781600019048211156200006f576200006f62000034565b808516156200007d57918102915b93841c93908002906200004f565b509250929050565b600082620000a45750600162000143565b81620000b35750600062000143565b8160018114620000cc5760028114620000d757620000f7565b600191505062000143565b60ff841115620000eb57620000eb62000034565b50506001821b62000143565b5060208310610133831016604e8410600b84101617156200011c575081810a62000143565b6200012883836200004a565b80600019048211156200013f576200013f62000034565b0290505b92915050565b600062000157838362000093565b9392505050565b611516806200016e6000396000f3fe6080604052600436106100f35760003560e01c80635f9da25c1161008a578063a9059cbb11610059578063a9059cbb1461030d578063ad931b7e1461032d578063b2e6ceeb14610363578063c39cbef11461038357600080fd5b80635f9da25c146102775780636352211e1461029757806370a08231146102b75780637bff0a01146102ed57600080fd5b80632052465e116100c65780632052465e1461018d5780634412e104146101bf578063528b7b8f146101ec5780635f4623f11461023a57600080fd5b806301afd7e1146100f8578063095ea7b3146101385780630ce90ec21461015a57806317a7f4cc1461016d575b600080fd5b34801561010457600080fd5b50610125610113366004610f34565b60056020526000908152604090205481565b6040519081526020015b60405180910390f35b34801561014457600080fd5b50610158610153366004610f4f565b6103a3565b005b610158610168366004610f79565b610428565b34801561017957600080fd5b50610158610188366004610f92565b6104be565b34801561019957600080fd5b506101ad6101a8366004610f79565b6105bd565b60405161012f96959493929190611004565b3480156101cb57600080fd5b506101df6101da366004610f34565b6106a5565b60405161012f919061104b565b3480156101f857600080fd5b50610222610207366004610f79565b6004602052600090815260409020546001600160a01b031681565b6040516001600160a01b03909116815260200161012f565b34801561024657600080fd5b50610158610255366004610f34565b600680546001600160a01b0319166001600160a01b0392909216919091179055565b34801561028357600080fd5b50600654610222906001600160a01b031681565b3480156102a357600080fd5b506102226102b2366004610f79565b6107b4565b3480156102c357600080fd5b506101256102d2366004610f34565b6001600160a01b031660009081526005602052604090205490565b3480156102f957600080fd5b50610158610308366004611132565b61080d565b34801561031957600080fd5b50610158610328366004610f4f565b61084a565b34801561033957600080fd5b50610222610348366004610f79565b6007602052600090815260409020546001600160a01b031681565b34801561036f57600080fd5b5061015861037e366004610f79565b6108ec565b34801561038f57600080fd5b5061015861039e36600461116f565b610964565b6000818152600460205260409020546001600160a01b031633146103fa5760405162461bcd60e51b81526020600482015260096024820152682737ba1037bbb732b960b91b60448201526064015b60405180910390fd5b600090815260076020526040902080546001600160a01b0319166001600160a01b0392909216919091179055565b34156104655760405162461bcd60e51b815260206004820152600c60248201526b4672656520696e2064656d6f60a01b60448201526064016103f1565b60038181548110610478576104786111b6565b600091825260208220600260039092020101805463ffffffff169161049c836111e2565b91906101000a81548163ffffffff021916908363ffffffff1602179055505050565b6000828152600460205260409020546001600160a01b031633146105165760405162461bcd60e51b815260206004820152600f60248201526e4e6f7420796f7572207a6f6d62696560881b60448201526064016103f1565b60065460405163e98b7f4d60e01b8152600481018390526000916001600160a01b03169063e98b7f4d9060240161014060405180830381865afa158015610561573d6000803e3d6000fd5b505050506040513d601f19601f820116820180604052508101906105859190611215565b99505050505050505050506105b88382604051806040016040528060058152602001646b6974747960d81b815250610a67565b505050565b600381815481106105cd57600080fd5b90600052602060002090600302016000915090508060000180546105f090611297565b80601f016020809104026020016040519081016040528092919081815260200182805461061c90611297565b80156106695780601f1061063e57610100808354040283529160200191610669565b820191906000526020600020905b81548152906001019060200180831161064c57829003601f168201915b505050600184015460029094015492939263ffffffff8082169350640100000000820481169250600160401b8204811691600160601b90041686565b60606000805b6003548110156106f6576000818152600460205260409020546001600160a01b038086169116036106e457816106e0816112d1565b9250505b806106ee816112d1565b9150506106ab565b5060008167ffffffffffffffff8111156107125761071261108f565b60405190808252806020026020018201604052801561073b578160200160208202803683370190505b5090506000805b6003548110156107aa576000818152600460205260409020546001600160a01b0380881691160361079857808383610779816112d1565b94508151811061078b5761078b6111b6565b6020026020010181815250505b806107a2816112d1565b915050610742565b5090949350505050565b6000818152600460205260408120546001600160a01b0316806108075760405162461bcd60e51b815260206004820152600b60248201526a139bdb995e1a5cdd195b9d60aa1b60448201526064016103f1565b92915050565b600061081882610bc7565b9050610825606482611300565b61082f9082611314565b61083a90600a611327565b90506108468282610c0f565b5050565b6001600160a01b03821661088f5760405162461bcd60e51b815260206004820152600c60248201526b5a65726f206164647265737360a01b60448201526064016103f1565b6000818152600460205260409020546001600160a01b031633146108e15760405162461bcd60e51b81526020600482015260096024820152682737ba1037bbb732b960b91b60448201526064016103f1565b610846338383610db0565b6000818152600760205260409020546001600160a01b031633146109415760405162461bcd60e51b815260206004820152600c60248201526b139bdd08185c1c1c9bdd995960a21b60448201526064016103f1565b6000818152600460205260409020546001600160a01b0316610846813384610db0565b600282816003828154811061097b5761097b6111b6565b600091825260209091206002600390920201015463ffffffff1610156109d75760405162461bcd60e51b815260206004820152601160248201527013995959081a1a59da195c881b195d995b607a1b60448201526064016103f1565b6000848152600460205260409020546001600160a01b03163314610a2f5760405162461bcd60e51b815260206004820152600f60248201526e4e6f7420796f7572207a6f6d62696560881b60448201526064016103f1565b8260038581548110610a4357610a436111b6565b90600052602060002090600302016000019081610a609190611388565b5050505050565b600060038481548110610a7c57610a7c6111b6565b90600052602060002090600302019050610aab81600201544263ffffffff600160601b90920491909116111590565b610aed5760405162461bcd60e51b81526020600482015260136024820152722d37b6b134b29031b7b7b634b733903237bbb760691b60448201526064016103f1565b600154610afa9084611300565b925060006002848360010154610b109190611327565b610b1a9190611448565b604051646b6974747960d81b60208201529091506025016040516020818303038152906040528051906020012083604051602001610b58919061145c565b6040516020818303038152906040528051906020012003610b9657610b7e606482611300565b610b889082611314565b610b93906063611327565b90505b610bbe604051806040016040528060068152602001654e6f4e616d6560d01b81525082610c0f565b610a6082610ee8565b600080823342604051602001610bdf93929190611478565b6040516020818303038152906040528051906020012060001c905060015481610c089190611300565b9392505050565b60036040518060c00160405280848152602001838152602001600163ffffffff168152602001600063ffffffff168152602001600063ffffffff16815260200160025442610c5d9190611327565b63ffffffff1690528154600181018355600092835260209092208151919260030201908190610c8c9082611388565b5060208201516001808301919091556040830151600290920180546060850151608086015160a09096015163ffffffff908116600160601b0263ffffffff60601b19978216600160401b02979097166fffffffffffffffff0000000000000000199282166401000000000267ffffffffffffffff199094169190961617919091171692909217929092179055600354600091610d2791611314565b600081815260046020908152604080832080546001600160a01b031916339081179091558352600590915281208054929350600192909190610d6a908490611327565b90915550506040517f88f026aacbbecc90c18411df4b1185fd8d9be2470f1962f192bf84a27d0704b790610da3908390869086906114b7565b60405180910390a1505050565b600081815260046020908152604080832080546001600160a01b0319166001600160a01b038716908117909155835260059091528120805460019290610df7908490611327565b90915550506001600160a01b03831615610e3a576001600160a01b0383166000908152600560205260408120805460019290610e34908490611314565b90915550505b600081815260076020526040902080546001600160a01b03191690556001600160a01b03831615610eab5780826001600160a01b0316846001600160a01b03167fddf252ad1be2c89b69c2b068fc378daa952ba7f163c4a11628f55a4df523b3ef60405160405180910390a4505050565b60405181906001600160a01b038416906000907fddf252ad1be2c89b69c2b068fc378daa952ba7f163c4a11628f55a4df523b3ef908290a4505050565b610ef342601e611327565b81600201600c6101000a81548163ffffffff021916908363ffffffff16021790555050565b80356001600160a01b0381168114610f2f57600080fd5b919050565b600060208284031215610f4657600080fd5b610c0882610f18565b60008060408385031215610f6257600080fd5b610f6b83610f18565b946020939093013593505050565b600060208284031215610f8b57600080fd5b5035919050565b60008060408385031215610fa557600080fd5b50508035926020909101359150565b60005b83811015610fcf578181015183820152602001610fb7565b50506000910152565b60008151808452610ff0816020860160208601610fb4565b601f01601f19169290920160200192915050565b60c08152600061101760c0830189610fd8565b60208301979097525063ffffffff94851660408201529284166060840152908316608083015290911660a090910152919050565b6020808252825182820181905260009190848201906040850190845b8181101561108357835183529284019291840191600101611067565b50909695505050505050565b634e487b7160e01b600052604160045260246000fd5b600082601f8301126110b657600080fd5b813567ffffffffffffffff808211156110d1576110d161108f565b604051601f8301601f19908116603f011681019082821181831017156110f9576110f961108f565b8160405283815286602085880101111561111257600080fd5b836020870160208301376000602085830101528094505050505092915050565b60006020828403121561114457600080fd5b813567ffffffffffffffff81111561115b57600080fd5b611167848285016110a5565b949350505050565b6000806040838503121561118257600080fd5b82359150602083013567ffffffffffffffff8111156111a057600080fd5b6111ac858286016110a5565b9150509250929050565b634e487b7160e01b600052603260045260246000fd5b634e487b7160e01b600052601160045260246000fd5b600063ffffffff8083168181036111fb576111fb6111cc565b6001019392505050565b80518015158114610f2f57600080fd5b6000806000806000806000806000806101408b8d03121561123557600080fd5b61123e8b611205565b995061124c60208c01611205565b985060408b0151975060608b0151965060808b0151955060a08b0151945060c08b0151935060e08b015192506101008b015191506101208b015190509295989b9194979a5092959850565b600181811c908216806112ab57607f821691505b6020821081036112cb57634e487b7160e01b600052602260045260246000fd5b50919050565b6000600182016112e3576112e36111cc565b5060010190565b634e487b7160e01b600052601260045260246000fd5b60008261130f5761130f6112ea565b500690565b81810381811115610807576108076111cc565b80820180821115610807576108076111cc565b601f8211156105b857600081815260208120601f850160051c810160208610156113615750805b601f850160051c820191505b818110156113805782815560010161136d565b505050505050565b815167ffffffffffffffff8111156113a2576113a261108f565b6113b6816113b08454611297565b8461133a565b602080601f8311600181146113eb57600084156113d35750858301515b600019600386901b1c1916600185901b178555611380565b600085815260208120601f198616915b8281101561141a578886015182559484019460019091019084016113fb565b50858210156114385787850151600019600388901b60f8161c191681555b5050505050600190811b01905550565b600082611457576114576112ea565b500490565b6000825161146e818460208701610fb4565b9190910192915050565b6000845161148a818460208901610fb4565b60609490941b6bffffffffffffffffffffffff191691909301908152601481019190915260340192915050565b8381526060602082015260006114d06060830185610fd8565b905082604083015294935050505056fea2646970667358221220fc2ad8fa14d73dfde0a982cfccae50206ac1c1906935f5b14865ddd2ae62df5264736f6c63430008140033",
  "immutableReferences": {},
  "source": "// SPDX-License-Identifier: MIT\npragma solidity ^0.8.20;\n\nimport \"./ZombieHelper.sol\";\n\ncontract ZombieOwnership is ZombieHelper {\n    event Transfer(address indexed from, address indexed to, uint indexed tokenId);\n    mapping (uint => address) public zombieApprovals;\n\n    function balanceOf(address _owner) public view returns (uint256) {\n        return ownerZombieCount[_owner];\n    }\n\n    function ownerOf(uint256 _tokenId) public view returns (address) {\n        address owner = zombieToOwner[_tokenId];\n        require(owner != address(0), \"Nonexistent\");\n        return owner;\n    }\n\n    function _transfer(address _from, address _to, uint _tokenId) internal {\n        zombieToOwner[_tokenId] = _to;\n        ownerZombieCount[_to] += 1;\n        if (_from != address(0)) { ownerZombieCount[_from] -= 1; }\n        zombieApprovals[_tokenId] = address(0);\n        if (_from != address(0)) emit Transfer(_from, _to, _tokenId);\n        else emit Transfer(address(0), _to, _tokenId);\n    }\n\n    function transfer(address _to, uint _tokenId) external {\n        require(_to != address(0), \"Zero address\");\n        require(zombieToOwner[_tokenId] == msg.sender, \"Not owner\");\n        _transfer(msg.sender, _to, _tokenId);\n    }\n\n    function approve(address _to, uint _tokenId) external {\n        require(zombieToOwner[_tokenId] == msg.sender, \"Not owner\");\n        zombieApprovals[_tokenId] = _to;\n    }\n\n    function takeOwnership(uint _tokenId) external {\n        require(zombieApprovals[_tokenId] == msg.sender, \"Not approved\");\n        address owner = zombieToOwner[_tokenId];\n        _transfer(owner, msg.sender, _tokenId);\n    }\n}\n",
  "sourcePath": "C:\\Users\\Anirudh\\OneDrive\\Desktop\\blockchain CPSC 559 artifacts\\Cryptozombie_MidTerm_Project\\contracts\\ZombieOwnership.sol",
  "compiler": {
    "name": "solc",
    "version": "0.8.20+commit.a1b79de6.Emscripten.clang"
  },
  "schemaVersion": "3.4.16",
  "updatedAt": "2025-10-19T23:51:01.285Z",
  "networkType": "ethereum",
  "devdoc": {
    "kind": "dev",
    "methods": {},
    "version": 1
  },
  "userdoc": {
    "kind": "user",
    "methods": {},
    "version": 1
  }
}