{
  "contractName": "ZombieFeeding",
  "abi": [
    {
      "anonymous": false,
      "inputs": [
        {
          "indexed": false,
          "internalType": "uint256",
          "name": "zombieId",
          "type": "uint256"
        },
        {
          "indexed": false,
          "internalType": "string",
          "name": "name",
          "type": "string"
        },
        {
          "indexed": false,
          "internalType": "uint256",
          "name": "dna",
          "type": "uint256"
        }
      ],
      "name": "NewZombie",
      "type": "event"
    },
    {
      "inputs": [
        {
          "internalType": "string",
          "name": "_name",
          "type": "string"
        }
      ],
      "name": "createRandomZombie",
      "outputs": [],
      "stateMutability": "nonpayable",
      "type": "function"
    },
    {
      "inputs": [],
      "name": "kittyContract",
      "outputs": [
        {
          "internalType": "contract KittyInterface",
          "name": "",
          "type": "address"
        }
      ],
      "stateMutability": "view",
      "type": "function"
    },
    {
      "inputs": [
        {
          "internalType": "address",
          "name": "",
          "type": "address"
        }
      ],
      "name": "ownerZombieCount",
      "outputs": [
        {
          "internalType": "uint256",
          "name": "",
          "type": "uint256"
        }
      ],
      "stateMutability": "view",
      "type": "function"
    },
    {
      "inputs": [
        {
          "internalType": "uint256",
          "name": "",
          "type": "uint256"
        }
      ],
      "name": "zombieToOwner",
      "outputs": [
        {
          "internalType": "address",
          "name": "",
          "type": "address"
        }
      ],
      "stateMutability": "view",
      "type": "function"
    },
    {
      "inputs": [
        {
          "internalType": "uint256",
          "name": "",
          "type": "uint256"
        }
      ],
      "name": "zombies",
      "outputs": [
        {
          "internalType": "string",
          "name": "name",
          "type": "string"
        },
        {
          "internalType": "uint256",
          "name": "dna",
          "type": "uint256"
        },
        {
          "internalType": "uint32",
          "name": "level",
          "type": "uint32"
        },
        {
          "internalType": "uint32",
          "name": "winCount",
          "type": "uint32"
        },
        {
          "internalType": "uint32",
          "name": "lossCount",
          "type": "uint32"
        },
        {
          "internalType": "uint32",
          "name": "readyTime",
          "type": "uint32"
        }
      ],
      "stateMutability": "view",
      "type": "function"
    },
    {
      "inputs": [
        {
          "internalType": "address",
          "name": "_address",
          "type": "address"
        }
      ],
      "name": "setKittyContractAddress",
      "outputs": [],
      "stateMutability": "nonpayable",
      "type": "function"
    },
    {
      "inputs": [
        {
          "internalType": "uint256",
          "name": "_zombieId",
          "type": "uint256"
        },
        {
          "internalType": "uint256",
          "name": "_kittyId",
          "type": "uint256"
        }
      ],
      "name": "feedOnKitty",
      "outputs": [],
      "stateMutability": "nonpayable",
      "type": "function"
    }
  ],
  "bytecode": "0x6080604052601060008190556200001890600a62000149565b600155603c6002553480156200002d57600080fd5b506200015e565b634e487b7160e01b600052601160045260246000fd5b600181815b808511156200008b5781600019048211156200006f576200006f62000034565b808516156200007d57918102915b93841c93908002906200004f565b509250929050565b600082620000a45750600162000143565b81620000b35750600062000143565b8160018114620000cc5760028114620000d757620000f7565b600191505062000143565b60ff841115620000eb57620000eb62000034565b50506001821b62000143565b5060208310610133831016604e8410600b84101617156200011c575081810a62000143565b6200012883836200004a565b80600019048211156200013f576200013f62000034565b0290505b92915050565b600062000157838362000093565b9392505050565b610c20806200016e6000396000f3fe608060405234801561001057600080fd5b506004361061007d5760003560e01c8063528b7b8f1161005b578063528b7b8f146100ef5780635f4623f1146101305780635f9da25c146101605780637bff0a011461017357600080fd5b806301afd7e11461008257806317a7f4cc146100b55780632052465e146100ca575b600080fd5b6100a261009036600461072f565b60056020526000908152604090205481565b6040519081526020015b60405180910390f35b6100c86100c3366004610758565b610186565b005b6100dd6100d836600461077a565b61028a565b6040516100ac969594939291906107e3565b6101186100fd36600461077a565b6004602052600090815260409020546001600160a01b031681565b6040516001600160a01b0390911681526020016100ac565b6100c861013e36600461072f565b600680546001600160a01b0319166001600160a01b0392909216919091179055565b600654610118906001600160a01b031681565b6100c8610181366004610840565b610372565b6000828152600460205260409020546001600160a01b031633146101e35760405162461bcd60e51b815260206004820152600f60248201526e4e6f7420796f7572207a6f6d62696560881b60448201526064015b60405180910390fd5b60065460405163e98b7f4d60e01b8152600481018390526000916001600160a01b03169063e98b7f4d9060240161014060405180830381865afa15801561022e573d6000803e3d6000fd5b505050506040513d601f19601f820116820180604052508101906102529190610906565b99505050505050505050506102858382604051806040016040528060058152602001646b6974747960d81b8152506103af565b505050565b6003818154811061029a57600080fd5b90600052602060002090600302016000915090508060000180546102bd90610988565b80601f01602080910402602001604051908101604052809291908181526020018280546102e990610988565b80156103365780601f1061030b57610100808354040283529160200191610336565b820191906000526020600020905b81548152906001019060200180831161031957829003601f168201915b505050600184015460029094015492939263ffffffff8082169350640100000000820481169250600160401b8204811691600160601b90041686565b600061037d82610516565b905061038a6064826109d8565b6103949082610a02565b61039f90600a610a1b565b90506103ab828261055e565b5050565b6000600384815481106103c4576103c4610a2e565b906000526020600020906003020190506103f381600201544263ffffffff600160601b90920491909116111590565b6104355760405162461bcd60e51b81526020600482015260136024820152722d37b6b134b29031b7b7b634b733903237bbb760691b60448201526064016101da565b60015461044290846109d8565b9250600060028483600101546104589190610a1b565b6104629190610a44565b604051646b6974747960d81b602082015290915060250160405160208183030381529060405280519060200120836040516020016104a09190610a58565b60405160208183030381529060405280519060200120036104de576104c66064826109d8565b6104d09082610a02565b6104db906063610a1b565b90505b610506604051806040016040528060068152602001654e6f4e616d6560d01b8152508261055e565b61050f826106ff565b5050505050565b60008082334260405160200161052e93929190610a74565b6040516020818303038152906040528051906020012060001c90506001548161055791906109d8565b9392505050565b60036040518060c00160405280848152602001838152602001600163ffffffff168152602001600063ffffffff168152602001600063ffffffff168152602001600254426105ac9190610a1b565b63ffffffff16905281546001810183556000928352602090922081519192600302019081906105db9082610b01565b5060208201516001808301919091556040830151600290920180546060850151608086015160a09096015163ffffffff908116600160601b0263ffffffff60601b19978216600160401b02979097166fffffffffffffffff0000000000000000199282166401000000000267ffffffffffffffff19909416919096161791909117169290921792909217905560035460009161067691610a02565b600081815260046020908152604080832080546001600160a01b0319163390811790915583526005909152812080549293506001929091906106b9908490610a1b565b90915550506040517f88f026aacbbecc90c18411df4b1185fd8d9be2470f1962f192bf84a27d0704b7906106f290839086908690610bc1565b60405180910390a1505050565b61070a42601e610a1b565b81600201600c6101000a81548163ffffffff021916908363ffffffff16021790555050565b60006020828403121561074157600080fd5b81356001600160a01b038116811461055757600080fd5b6000806040838503121561076b57600080fd5b50508035926020909101359150565b60006020828403121561078c57600080fd5b5035919050565b60005b838110156107ae578181015183820152602001610796565b50506000910152565b600081518084526107cf816020860160208601610793565b601f01601f19169290920160200192915050565b60c0815260006107f660c08301896107b7565b60208301979097525063ffffffff94851660408201529284166060840152908316608083015290911660a090910152919050565b634e487b7160e01b600052604160045260246000fd5b60006020828403121561085257600080fd5b813567ffffffffffffffff8082111561086a57600080fd5b818401915084601f83011261087e57600080fd5b8135818111156108905761089061082a565b604051601f8201601f19908116603f011681019083821181831017156108b8576108b861082a565b816040528281528760208487010111156108d157600080fd5b826020860160208301376000928101602001929092525095945050505050565b8051801515811461090157600080fd5b919050565b6000806000806000806000806000806101408b8d03121561092657600080fd5b61092f8b6108f1565b995061093d60208c016108f1565b985060408b0151975060608b0151965060808b0151955060a08b0151945060c08b0151935060e08b015192506101008b015191506101208b015190509295989b9194979a5092959850565b600181811c9082168061099c57607f821691505b6020821081036109bc57634e487b7160e01b600052602260045260246000fd5b50919050565b634e487b7160e01b600052601260045260246000fd5b6000826109e7576109e76109c2565b500690565b634e487b7160e01b600052601160045260246000fd5b81810381811115610a1557610a156109ec565b92915050565b80820180821115610a1557610a156109ec565b634e487b7160e01b600052603260045260246000fd5b600082610a5357610a536109c2565b500490565b60008251610a6a818460208701610793565b9190910192915050565b60008451610a86818460208901610793565b60609490941b6bffffffffffffffffffffffff191691909301908152601481019190915260340192915050565b601f82111561028557600081815260208120601f850160051c81016020861015610ada5750805b601f850160051c820191505b81811015610af957828155600101610ae6565b505050505050565b815167ffffffffffffffff811115610b1b57610b1b61082a565b610b2f81610b298454610988565b84610ab3565b602080601f831160018114610b645760008415610b4c5750858301515b600019600386901b1c1916600185901b178555610af9565b600085815260208120601f198616915b82811015610b9357888601518255948401946001909101908401610b74565b5085821015610bb15787850151600019600388901b60f8161c191681555b5050505050600190811b01905550565b838152606060208201526000610bda60608301856107b7565b905082604083015294935050505056fea2646970667358221220bb9b721d24c20a4c79b1e9d3b581c568b6c9dc2a12b8cca72c9d415192be85e764736f6c63430008140033",
  "immutableReferences": {},
  "source": "// SPDX-License-Identifier: MIT\npragma solidity ^0.8.20;\n\nimport \"./ZombieFactory.sol\";\nimport \"./KittyInterface.sol\";\n\ncontract ZombieFeeding is ZombieFactory {\n    KittyInterface public kittyContract;\n\n    function setKittyContractAddress(address _address) external {\n        kittyContract = KittyInterface(_address);\n    }\n\n    function _isReady(Zombie storage _z) internal view returns (bool) {\n        return _z.readyTime <= block.timestamp;\n    }\n\n    function _triggerCooldown(Zombie storage _z) internal {\n        _z.readyTime = uint32(block.timestamp + 30); // short cooldown for demo\n    }\n\n    function feedAndMultiply(uint _zombieId, uint _targetDna, string memory _species) internal {\n        Zombie storage myZombie = zombies[_zombieId];\n        require(_isReady(myZombie), \"Zombie cooling down\");\n        _targetDna = _targetDna % dnaModulus;\n        uint newDna = (myZombie.dna + _targetDna) / 2;\n\n        if (keccak256(abi.encodePacked(_species)) == keccak256(abi.encodePacked(\"kitty\"))) {\n            newDna = newDna - (newDna % 100) + 99;\n        }\n        _createZombie(\"NoName\", newDna);\n        _triggerCooldown(myZombie);\n    }\n\n    function feedOnKitty(uint _zombieId, uint _kittyId) public {\n        require(msg.sender == zombieToOwner[_zombieId], \"Not your zombie\");\n        (,,,,,,,,,uint kittyDna) = kittyContract.getKitty(_kittyId);\n        feedAndMultiply(_zombieId, kittyDna, \"kitty\");\n    }\n}\n",
  "sourcePath": "C:\\Users\\Anirudh\\OneDrive\\Desktop\\blockchain CPSC 559 artifacts\\Cryptozombie_MidTerm_Project\\contracts\\ZombieFeeding.sol",
  "compiler": {
    "name": "solc",
    "version": "0.8.20+commit.a1b79de6.Emscripten.clang"
  },
  "schemaVersion": "3.4.16",
  "updatedAt": "2025-10-19T23:50:58.229Z",
  "devdoc": {
    "kind": "dev",
    "methods": {},
    "version": 1
  },
  "userdoc": {
    "kind": "user",
    "methods": {},
    "version": 1
  }
}