{
  "contractName": "ZombieFactory",
  "abi": [
    {
      "anonymous": false,
      "inputs": [
        {
          "indexed": false,
          "internalType": "uint256",
          "name": "zombieId",
          "type": "uint256"
        },
        {
          "indexed": false,
          "internalType": "string",
          "name": "name",
          "type": "string"
        },
        {
          "indexed": false,
          "internalType": "uint256",
          "name": "dna",
          "type": "uint256"
        }
      ],
      "name": "NewZombie",
      "type": "event"
    },
    {
      "inputs": [
        {
          "internalType": "address",
          "name": "",
          "type": "address"
        }
      ],
      "name": "ownerZombieCount",
      "outputs": [
        {
          "internalType": "uint256",
          "name": "",
          "type": "uint256"
        }
      ],
      "stateMutability": "view",
      "type": "function"
    },
    {
      "inputs": [
        {
          "internalType": "uint256",
          "name": "",
          "type": "uint256"
        }
      ],
      "name": "zombieToOwner",
      "outputs": [
        {
          "internalType": "address",
          "name": "",
          "type": "address"
        }
      ],
      "stateMutability": "view",
      "type": "function"
    },
    {
      "inputs": [
        {
          "internalType": "uint256",
          "name": "",
          "type": "uint256"
        }
      ],
      "name": "zombies",
      "outputs": [
        {
          "internalType": "string",
          "name": "name",
          "type": "string"
        },
        {
          "internalType": "uint256",
          "name": "dna",
          "type": "uint256"
        },
        {
          "internalType": "uint32",
          "name": "level",
          "type": "uint32"
        },
        {
          "internalType": "uint32",
          "name": "winCount",
          "type": "uint32"
        },
        {
          "internalType": "uint32",
          "name": "lossCount",
          "type": "uint32"
        },
        {
          "internalType": "uint32",
          "name": "readyTime",
          "type": "uint32"
        }
      ],
      "stateMutability": "view",
      "type": "function"
    },
    {
      "inputs": [
        {
          "internalType": "string",
          "name": "_name",
          "type": "string"
        }
      ],
      "name": "createRandomZombie",
      "outputs": [],
      "stateMutability": "nonpayable",
      "type": "function"
    }
  ],
  "bytecode": "0x60806040526010600081905561001690600a61012c565b600155603c60025534801561002a57600080fd5b5061013f565b634e487b7160e01b600052601160045260246000fd5b600181815b8085111561008157816000190482111561006757610067610030565b8085161561007457918102915b93841c939080029061004b565b509250929050565b60008261009857506001610126565b816100a557506000610126565b81600181146100bb57600281146100c5576100e1565b6001915050610126565b60ff8411156100d6576100d6610030565b50506001821b610126565b5060208310610133831016604e8410600b8410161715610104575081810a610126565b61010e8383610046565b806000190482111561012257610122610030565b0290505b92915050565b60006101388383610089565b9392505050565b6107f88061014e6000396000f3fe608060405234801561001057600080fd5b506004361061004c5760003560e01c806301afd7e1146100515780632052465e14610084578063528b7b8f146100a95780637bff0a01146100ea575b600080fd5b61007161005f36600461040d565b60056020526000908152604090205481565b6040519081526020015b60405180910390f35b610097610092366004610436565b6100ff565b60405161007b9695949392919061049f565b6100d26100b7366004610436565b6004602052600090815260409020546001600160a01b031681565b6040516001600160a01b03909116815260200161007b565b6100fd6100f83660046104fc565b6101e7565b005b6003818154811061010f57600080fd5b9060005260206000209060030201600091509050806000018054610132906105ad565b80601f016020809104026020016040519081016040528092919081815260200182805461015e906105ad565b80156101ab5780601f10610180576101008083540402835291602001916101ab565b820191906000526020600020905b81548152906001019060200180831161018e57829003601f168201915b505050600184015460029094015492939263ffffffff8082169350640100000000820481169250600160401b8204811691600160601b90041686565b60006101f282610224565b90506101ff6064826105e7565b610209908261061f565b61021490600a610638565b9050610220828261026c565b5050565b60008082334260405160200161023c9392919061064b565b6040516020818303038152906040528051906020012060001c90506001548161026591906105e7565b9392505050565b60036040518060c00160405280848152602001838152602001600163ffffffff168152602001600063ffffffff168152602001600063ffffffff168152602001600254426102ba9190610638565b63ffffffff16905281546001810183556000928352602090922081519192600302019081906102e990826106d9565b5060208201516001808301919091556040830151600290920180546060850151608086015160a09096015163ffffffff908116600160601b0263ffffffff60601b19978216600160401b02979097166fffffffffffffffff0000000000000000199282166401000000000267ffffffffffffffff1990941691909616179190911716929092179290921790556003546000916103849161061f565b600081815260046020908152604080832080546001600160a01b0319163390811790915583526005909152812080549293506001929091906103c7908490610638565b90915550506040517f88f026aacbbecc90c18411df4b1185fd8d9be2470f1962f192bf84a27d0704b79061040090839086908690610799565b60405180910390a1505050565b60006020828403121561041f57600080fd5b81356001600160a01b038116811461026557600080fd5b60006020828403121561044857600080fd5b5035919050565b60005b8381101561046a578181015183820152602001610452565b50506000910152565b6000815180845261048b81602086016020860161044f565b601f01601f19169290920160200192915050565b60c0815260006104b260c0830189610473565b60208301979097525063ffffffff94851660408201529284166060840152908316608083015290911660a090910152919050565b634e487b7160e01b600052604160045260246000fd5b60006020828403121561050e57600080fd5b813567ffffffffffffffff8082111561052657600080fd5b818401915084601f83011261053a57600080fd5b81358181111561054c5761054c6104e6565b604051601f8201601f19908116603f01168101908382118183101715610574576105746104e6565b8160405282815287602084870101111561058d57600080fd5b826020860160208301376000928101602001929092525095945050505050565b600181811c908216806105c157607f821691505b6020821081036105e157634e487b7160e01b600052602260045260246000fd5b50919050565b60008261060457634e487b7160e01b600052601260045260246000fd5b500690565b634e487b7160e01b600052601160045260246000fd5b8181038181111561063257610632610609565b92915050565b8082018082111561063257610632610609565b6000845161065d81846020890161044f565b60609490941b6bffffffffffffffffffffffff191691909301908152601481019190915260340192915050565b601f8211156106d457600081815260208120601f850160051c810160208610156106b15750805b601f850160051c820191505b818110156106d0578281556001016106bd565b5050505b505050565b815167ffffffffffffffff8111156106f3576106f36104e6565b6107078161070184546105ad565b8461068a565b602080601f83116001811461073c57600084156107245750858301515b600019600386901b1c1916600185901b1785556106d0565b600085815260208120601f198616915b8281101561076b5788860151825594840194600190910190840161074c565b50858210156107895787850151600019600388901b60f8161c191681555b5050505050600190811b01905550565b8381526060602082015260006107b26060830185610473565b905082604083015294935050505056fea2646970667358221220fc31481c145b5582ef7e928270a13e11e7c315392a84482fa7b5024869dc2a0a64736f6c63430008140033",
  "immutableReferences": {},
  "source": "// SPDX-License-Identifier: MIT\npragma solidity ^0.8.20;\n\ncontract ZombieFactory {\n    event NewZombie(uint zombieId, string name, uint dna);\n\n    uint dnaDigits = 16;\n    uint dnaModulus = 10 ** dnaDigits;\n    uint cooldownTime = 1 minutes;\n\n    struct Zombie {\n        string name;\n        uint dna;\n        uint32 level;\n        uint32 winCount;\n        uint32 lossCount;\n        uint32 readyTime;\n    }\n\n    Zombie[] public zombies;\n    mapping (uint => address) public zombieToOwner;\n    mapping (address => uint) public ownerZombieCount;\n\n    function _createZombie(string memory _name, uint _dna) internal {\n        zombies.push(Zombie(_name, _dna, 1, 0, 0, uint32(block.timestamp + cooldownTime)));\n        uint id = zombies.length - 1;\n        zombieToOwner[id] = msg.sender;\n        ownerZombieCount[msg.sender] += 1;\n        emit NewZombie(id, _name, _dna);\n    }\n\n    function _generateRandomDna(string memory _str) private view returns (uint) {\n        uint rand = uint(keccak256(abi.encodePacked(_str, msg.sender, block.timestamp)));\n        return rand % dnaModulus;\n    }\n\n    function createRandomZombie(string memory _name) public {\n        uint randDna = _generateRandomDna(_name);\n        randDna = randDna - randDna % 100 + 10; // avoid kitty '99' suffix for base spawns\n        _createZombie(_name, randDna);\n    }\n}\n",
  "sourcePath": "C:\\Users\\Anirudh\\OneDrive\\Desktop\\blockchain CPSC 559 artifacts\\Cryptozombie_MidTerm_Project\\contracts\\ZombieFactory.sol",
  "compiler": {
    "name": "solc",
    "version": "0.8.20+commit.a1b79de6.Emscripten.clang"
  },
  "schemaVersion": "3.4.16",
  "updatedAt": "2025-10-19T23:50:58.210Z",
  "devdoc": {
    "kind": "dev",
    "methods": {},
    "version": 1
  },
  "userdoc": {
    "kind": "user",
    "methods": {},
    "version": 1
  }
}